{
  "contractName": "EthPriceOracle",
  "abi": [
    {
      "inputs": [
        {
          "internalType": "address",
          "name": "_owner",
          "type": "address"
        }
      ],
      "stateMutability": "nonpayable",
      "type": "constructor"
    },
    {
      "anonymous": false,
      "inputs": [
        {
          "indexed": false,
          "internalType": "address",
          "name": "callerAddress",
          "type": "address"
        },
        {
          "indexed": false,
          "internalType": "uint256",
          "name": "id",
          "type": "uint256"
        }
      ],
      "name": "GetLatestEthPriceEvent",
      "type": "event"
    },
    {
      "anonymous": false,
      "inputs": [
        {
          "indexed": true,
          "internalType": "bytes32",
          "name": "role",
          "type": "bytes32"
        },
        {
          "indexed": true,
          "internalType": "bytes32",
          "name": "previousAdminRole",
          "type": "bytes32"
        },
        {
          "indexed": true,
          "internalType": "bytes32",
          "name": "newAdminRole",
          "type": "bytes32"
        }
      ],
      "name": "RoleAdminChanged",
      "type": "event"
    },
    {
      "anonymous": false,
      "inputs": [
        {
          "indexed": true,
          "internalType": "bytes32",
          "name": "role",
          "type": "bytes32"
        },
        {
          "indexed": true,
          "internalType": "address",
          "name": "account",
          "type": "address"
        },
        {
          "indexed": true,
          "internalType": "address",
          "name": "sender",
          "type": "address"
        }
      ],
      "name": "RoleGranted",
      "type": "event"
    },
    {
      "anonymous": false,
      "inputs": [
        {
          "indexed": true,
          "internalType": "bytes32",
          "name": "role",
          "type": "bytes32"
        },
        {
          "indexed": true,
          "internalType": "address",
          "name": "account",
          "type": "address"
        },
        {
          "indexed": true,
          "internalType": "address",
          "name": "sender",
          "type": "address"
        }
      ],
      "name": "RoleRevoked",
      "type": "event"
    },
    {
      "anonymous": false,
      "inputs": [
        {
          "indexed": false,
          "internalType": "uint256",
          "name": "ethPrice",
          "type": "uint256"
        },
        {
          "indexed": false,
          "internalType": "address",
          "name": "callerAddress",
          "type": "address"
        }
      ],
      "name": "SetLatestEthPriceEvent",
      "type": "event"
    },
    {
      "inputs": [],
      "name": "DEFAULT_ADMIN_ROLE",
      "outputs": [
        {
          "internalType": "bytes32",
          "name": "",
          "type": "bytes32"
        }
      ],
      "stateMutability": "view",
      "type": "function"
    },
    {
      "inputs": [
        {
          "internalType": "bytes32",
          "name": "role",
          "type": "bytes32"
        }
      ],
      "name": "getRoleAdmin",
      "outputs": [
        {
          "internalType": "bytes32",
          "name": "",
          "type": "bytes32"
        }
      ],
      "stateMutability": "view",
      "type": "function"
    },
    {
      "inputs": [
        {
          "internalType": "bytes32",
          "name": "role",
          "type": "bytes32"
        },
        {
          "internalType": "address",
          "name": "account",
          "type": "address"
        }
      ],
      "name": "grantRole",
      "outputs": [],
      "stateMutability": "nonpayable",
      "type": "function"
    },
    {
      "inputs": [
        {
          "internalType": "bytes32",
          "name": "role",
          "type": "bytes32"
        },
        {
          "internalType": "address",
          "name": "account",
          "type": "address"
        }
      ],
      "name": "hasRole",
      "outputs": [
        {
          "internalType": "bool",
          "name": "",
          "type": "bool"
        }
      ],
      "stateMutability": "view",
      "type": "function"
    },
    {
      "inputs": [],
      "name": "oracles",
      "outputs": [
        {
          "internalType": "bytes32",
          "name": "",
          "type": "bytes32"
        }
      ],
      "stateMutability": "view",
      "type": "function"
    },
    {
      "inputs": [],
      "name": "owner",
      "outputs": [
        {
          "internalType": "bytes32",
          "name": "",
          "type": "bytes32"
        }
      ],
      "stateMutability": "view",
      "type": "function"
    },
    {
      "inputs": [
        {
          "internalType": "bytes32",
          "name": "role",
          "type": "bytes32"
        },
        {
          "internalType": "address",
          "name": "account",
          "type": "address"
        }
      ],
      "name": "renounceRole",
      "outputs": [],
      "stateMutability": "nonpayable",
      "type": "function"
    },
    {
      "inputs": [
        {
          "internalType": "bytes32",
          "name": "role",
          "type": "bytes32"
        },
        {
          "internalType": "address",
          "name": "account",
          "type": "address"
        }
      ],
      "name": "revokeRole",
      "outputs": [],
      "stateMutability": "nonpayable",
      "type": "function"
    },
    {
      "inputs": [
        {
          "internalType": "bytes4",
          "name": "interfaceId",
          "type": "bytes4"
        }
      ],
      "name": "supportsInterface",
      "outputs": [
        {
          "internalType": "bool",
          "name": "",
          "type": "bool"
        }
      ],
      "stateMutability": "view",
      "type": "function"
    },
    {
      "inputs": [],
      "name": "getLatestEthPrice",
      "outputs": [
        {
          "internalType": "uint256",
          "name": "",
          "type": "uint256"
        }
      ],
      "stateMutability": "nonpayable",
      "type": "function"
    },
    {
      "inputs": [
        {
          "internalType": "uint256",
          "name": "_ethPrice",
          "type": "uint256"
        },
        {
          "internalType": "address",
          "name": "_callerAddress",
          "type": "address"
        },
        {
          "internalType": "uint256",
          "name": "_id",
          "type": "uint256"
        }
      ],
      "name": "setLatestEthPrice",
      "outputs": [],
      "stateMutability": "nonpayable",
      "type": "function"
    }
  ],
  "bytecode": "0x608060405260006001556103e86002553480156200001c57600080fd5b5060405162001ef438038062001ef48339818101604052810190620000429190620005e3565b620000747f02016836a56b71f0d02689e69e326f4f4c1b9057164ef592671cf0d37c8040c0826200007b60201b60201c565b50620009f6565b6200008c82620000b460201b60201c565b6200009d81620000d360201b60201c565b620000af8383620000f760201b60201c565b505050565b6000806000838152602001908152602001600020600101549050919050565b620000f481620000e8620001e860201b60201c565b620001f060201b60201c565b50565b620001098282620002b460201b60201c565b620001e457600160008084815260200190815260200160002060000160008373ffffffffffffffffffffffffffffffffffffffff1673ffffffffffffffffffffffffffffffffffffffff16815260200190815260200160002060006101000a81548160ff02191690831515021790555062000189620001e860201b60201c565b73ffffffffffffffffffffffffffffffffffffffff168173ffffffffffffffffffffffffffffffffffffffff16837f2f8788117e7eff1d82e926ec794901d17c78024a50270940304540a733656f0d60405160405180910390a45b5050565b600033905090565b620002028282620002b460201b60201c565b620002b057620002358173ffffffffffffffffffffffffffffffffffffffff1660146200031e60201b620006631760201c565b620002508360001c60206200031e60201b620006631760201c565b6040516020016200026392919062000738565b6040516020818303038152906040526040517f08c379a0000000000000000000000000000000000000000000000000000000008152600401620002a79190620007dd565b60405180910390fd5b5050565b600080600084815260200190815260200160002060000160008373ffffffffffffffffffffffffffffffffffffffff1673ffffffffffffffffffffffffffffffffffffffff16815260200190815260200160002060009054906101000a900460ff16905092915050565b6060600060028360026200033391906200083a565b6200033f91906200089b565b67ffffffffffffffff8111156200035b576200035a620008f8565b5b6040519080825280601f01601f1916602001820160405280156200038e5781602001600182028036833780820191505090505b5090507f300000000000000000000000000000000000000000000000000000000000000081600081518110620003c957620003c862000927565b5b60200101907effffffffffffffffffffffffffffffffffffffffffffffffffffffffffffff1916908160001a9053507f78000000000000000000000000000000000000000000000000000000000000008160018151811062000430576200042f62000927565b5b60200101907effffffffffffffffffffffffffffffffffffffffffffffffffffffffffffff1916908160001a905350600060018460026200047291906200083a565b6200047e91906200089b565b90505b600181111562000528577f3031323334353637383961626364656600000000000000000000000000000000600f861660108110620004c457620004c362000927565b5b1a60f81b828281518110620004de57620004dd62000927565b5b60200101907effffffffffffffffffffffffffffffffffffffffffffffffffffffffffffff1916908160001a905350600485901c945080620005209062000956565b905062000481565b50600084146200056f576040517f08c379a00000000000000000000000000000000000000000000000000000000081526004016200056690620009d4565b60405180910390fd5b8091505092915050565b600080fd5b600073ffffffffffffffffffffffffffffffffffffffff82169050919050565b6000620005ab826200057e565b9050919050565b620005bd816200059e565b8114620005c957600080fd5b50565b600081519050620005dd81620005b2565b92915050565b600060208284031215620005fc57620005fb62000579565b5b60006200060c84828501620005cc565b91505092915050565b600081905092915050565b7f416363657373436f6e74726f6c3a206163636f756e7420000000000000000000600082015250565b60006200065860178362000615565b9150620006658262000620565b601782019050919050565b600081519050919050565b60005b838110156200069b5780820151818401526020810190506200067e565b83811115620006ab576000848401525b50505050565b6000620006be8262000670565b620006ca818562000615565b9350620006dc8185602086016200067b565b80840191505092915050565b7f206973206d697373696e6720726f6c6520000000000000000000000000000000600082015250565b60006200072060118362000615565b91506200072d82620006e8565b601182019050919050565b6000620007458262000649565b9150620007538285620006b1565b9150620007608262000711565b91506200076e8284620006b1565b91508190509392505050565b600082825260208201905092915050565b6000601f19601f8301169050919050565b6000620007a98262000670565b620007b581856200077a565b9350620007c78185602086016200067b565b620007d2816200078b565b840191505092915050565b60006020820190508181036000830152620007f981846200079c565b905092915050565b6000819050919050565b7f4e487b7100000000000000000000000000000000000000000000000000000000600052601160045260246000fd5b6000620008478262000801565b9150620008548362000801565b9250817fffffffffffffffffffffffffffffffffffffffffffffffffffffffffffffffff048311821515161562000890576200088f6200080b565b5b828202905092915050565b6000620008a88262000801565b9150620008b58362000801565b9250827fffffffffffffffffffffffffffffffffffffffffffffffffffffffffffffffff03821115620008ed57620008ec6200080b565b5b828201905092915050565b7f4e487b7100000000000000000000000000000000000000000000000000000000600052604160045260246000fd5b7f4e487b7100000000000000000000000000000000000000000000000000000000600052603260045260246000fd5b6000620009638262000801565b9150600082036200097957620009786200080b565b5b600182039050919050565b7f537472696e67733a20686578206c656e67746820696e73756666696369656e74600082015250565b6000620009bc6020836200077a565b9150620009c98262000984565b602082019050919050565b60006020820190508181036000830152620009ef81620009ad565b9050919050565b6114ee8062000a066000396000f3fe608060405234801561001057600080fd5b50600436106100a95760003560e01c806336568abe1161007157806336568abe146101665780638da5cb5b1461018257806391d14854146101a0578063a217fddf146101d0578063cf642f1f146101ee578063d547741f1461020a576100a9565b806301ffc9a7146100ae578063248a9ca3146100de5780632857373a1461010e5780632f2ff15d1461012c57806330c0b9ec14610148575b600080fd5b6100c860048036038101906100c39190610be0565b610226565b6040516100d59190610c28565b60405180910390f35b6100f860048036038101906100f39190610c79565b6102a0565b6040516101059190610cb5565b60405180910390f35b6101166102bf565b6040516101239190610cb5565b60405180910390f35b61014660048036038101906101419190610d2e565b6102e3565b005b610150610304565b60405161015d9190610d87565b60405180910390f35b610180600480360381019061017b9190610d2e565b6103cb565b005b61018a61044e565b6040516101979190610cb5565b60405180910390f35b6101ba60048036038101906101b59190610d2e565b610472565b6040516101c79190610c28565b60405180910390f35b6101d86104dc565b6040516101e59190610cb5565b60405180910390f35b61020860048036038101906102039190610dce565b6104e3565b005b610224600480360381019061021f9190610d2e565b610642565b005b60007f7965db0b000000000000000000000000000000000000000000000000000000007bffffffffffffffffffffffffffffffffffffffffffffffffffffffff1916827bffffffffffffffffffffffffffffffffffffffffffffffffffffffff1916148061029957506102988261089f565b5b9050919050565b6000806000838152602001908152602001600020600101549050919050565b7fb7a48206cd37ed309fdcdf62fe4b65d6871298645d5e41942f0cd89c08a65cbf81565b6102ec826102a0565b6102f581610909565b6102ff838361091d565b505050565b60006001600081548092919061031990610e50565b91905055506000600254423360015460405160200161033a93929190610f01565b6040516020818303038152906040528051906020012060001c61035d9190610f6d565b905060016003600083815260200190815260200160002060006101000a81548160ff0219169083151502179055507f3d50a0c24e97813f35595d2f1f37dbf421d5e97f37abd4e222853e9b9c82c8d533826040516103bc929190610fad565b60405180910390a18091505090565b6103d36109fd565b73ffffffffffffffffffffffffffffffffffffffff168173ffffffffffffffffffffffffffffffffffffffff1614610440576040517f08c379a000000000000000000000000000000000000000000000000000000000815260040161043790611059565b60405180910390fd5b61044a8282610a05565b5050565b7f02016836a56b71f0d02689e69e326f4f4c1b9057164ef592671cf0d37c8040c081565b600080600084815260200190815260200160002060000160008373ffffffffffffffffffffffffffffffffffffffff1673ffffffffffffffffffffffffffffffffffffffff16815260200190815260200160002060009054906101000a900460ff16905092915050565b6000801b81565b7f02016836a56b71f0d02689e69e326f4f4c1b9057164ef592671cf0d37c8040c061050d81610909565b6003600083815260200190815260200160002060009054906101000a900460ff1661056d576040517f08c379a0000000000000000000000000000000000000000000000000000000008152600401610564906110eb565b60405180910390fd5b6003600083815260200190815260200160002060006101000a81549060ff021916905560008390508073ffffffffffffffffffffffffffffffffffffffff1663b5d73ba486856040518363ffffffff1660e01b81526004016105d092919061110b565b600060405180830381600087803b1580156105ea57600080fd5b505af11580156105fe573d6000803e3d6000fd5b505050507f91b860381268a473101de3379abbb70abf7ea6c9d1735cf58b9816479ff3b7278585604051610633929190611134565b60405180910390a15050505050565b61064b826102a0565b61065481610909565b61065e8383610a05565b505050565b606060006002836002610676919061115d565b61068091906111b7565b67ffffffffffffffff8111156106995761069861120d565b5b6040519080825280601f01601f1916602001820160405280156106cb5781602001600182028036833780820191505090505b5090507f3000000000000000000000000000000000000000000000000000000000000000816000815181106107035761070261123c565b5b60200101907effffffffffffffffffffffffffffffffffffffffffffffffffffffffffffff1916908160001a9053507f7800000000000000000000000000000000000000000000000000000000000000816001815181106107675761076661123c565b5b60200101907effffffffffffffffffffffffffffffffffffffffffffffffffffffffffffff1916908160001a905350600060018460026107a7919061115d565b6107b191906111b7565b90505b6001811115610851577f3031323334353637383961626364656600000000000000000000000000000000600f8616601081106107f3576107f261123c565b5b1a60f81b82828151811061080a5761080961123c565b5b60200101907effffffffffffffffffffffffffffffffffffffffffffffffffffffffffffff1916908160001a905350600485901c94508061084a9061126b565b90506107b4565b5060008414610895576040517f08c379a000000000000000000000000000000000000000000000000000000000815260040161088c906112e0565b60405180910390fd5b8091505092915050565b60007f01ffc9a7000000000000000000000000000000000000000000000000000000007bffffffffffffffffffffffffffffffffffffffffffffffffffffffff1916827bffffffffffffffffffffffffffffffffffffffffffffffffffffffff1916149050919050565b61091a816109156109fd565b610ae6565b50565b6109278282610472565b6109f957600160008084815260200190815260200160002060000160008373ffffffffffffffffffffffffffffffffffffffff1673ffffffffffffffffffffffffffffffffffffffff16815260200190815260200160002060006101000a81548160ff02191690831515021790555061099e6109fd565b73ffffffffffffffffffffffffffffffffffffffff168173ffffffffffffffffffffffffffffffffffffffff16837f2f8788117e7eff1d82e926ec794901d17c78024a50270940304540a733656f0d60405160405180910390a45b5050565b600033905090565b610a0f8282610472565b15610ae257600080600084815260200190815260200160002060000160008373ffffffffffffffffffffffffffffffffffffffff1673ffffffffffffffffffffffffffffffffffffffff16815260200190815260200160002060006101000a81548160ff021916908315150217905550610a876109fd565b73ffffffffffffffffffffffffffffffffffffffff168173ffffffffffffffffffffffffffffffffffffffff16837ff6391f5c32d9c69d2a47ea670b442974b53935d1edc7fd64eb21e047a839171b60405160405180910390a45b5050565b610af08282610472565b610b7f57610b158173ffffffffffffffffffffffffffffffffffffffff166014610663565b610b238360001c6020610663565b604051602001610b34929190611412565b6040516020818303038152906040526040517f08c379a0000000000000000000000000000000000000000000000000000000008152600401610b769190611496565b60405180910390fd5b5050565b600080fd5b60007fffffffff0000000000000000000000000000000000000000000000000000000082169050919050565b610bbd81610b88565b8114610bc857600080fd5b50565b600081359050610bda81610bb4565b92915050565b600060208284031215610bf657610bf5610b83565b5b6000610c0484828501610bcb565b91505092915050565b60008115159050919050565b610c2281610c0d565b82525050565b6000602082019050610c3d6000830184610c19565b92915050565b6000819050919050565b610c5681610c43565b8114610c6157600080fd5b50565b600081359050610c7381610c4d565b92915050565b600060208284031215610c8f57610c8e610b83565b5b6000610c9d84828501610c64565b91505092915050565b610caf81610c43565b82525050565b6000602082019050610cca6000830184610ca6565b92915050565b600073ffffffffffffffffffffffffffffffffffffffff82169050919050565b6000610cfb82610cd0565b9050919050565b610d0b81610cf0565b8114610d1657600080fd5b50565b600081359050610d2881610d02565b92915050565b60008060408385031215610d4557610d44610b83565b5b6000610d5385828601610c64565b9250506020610d6485828601610d19565b9150509250929050565b6000819050919050565b610d8181610d6e565b82525050565b6000602082019050610d9c6000830184610d78565b92915050565b610dab81610d6e565b8114610db657600080fd5b50565b600081359050610dc881610da2565b92915050565b600080600060608486031215610de757610de6610b83565b5b6000610df586828701610db9565b9350506020610e0686828701610d19565b9250506040610e1786828701610db9565b9150509250925092565b7f4e487b7100000000000000000000000000000000000000000000000000000000600052601160045260246000fd5b6000610e5b82610d6e565b91507fffffffffffffffffffffffffffffffffffffffffffffffffffffffffffffffff8203610e8d57610e8c610e21565b5b600182019050919050565b6000819050919050565b610eb3610eae82610d6e565b610e98565b82525050565b60008160601b9050919050565b6000610ed182610eb9565b9050919050565b6000610ee382610ec6565b9050919050565b610efb610ef682610cf0565b610ed8565b82525050565b6000610f0d8286610ea2565b602082019150610f1d8285610eea565b601482019150610f2d8284610ea2565b602082019150819050949350505050565b7f4e487b7100000000000000000000000000000000000000000000000000000000600052601260045260246000fd5b6000610f7882610d6e565b9150610f8383610d6e565b925082610f9357610f92610f3e565b5b828206905092915050565b610fa781610cf0565b82525050565b6000604082019050610fc26000830185610f9e565b610fcf6020830184610d78565b9392505050565b600082825260208201905092915050565b7f416363657373436f6e74726f6c3a2063616e206f6e6c792072656e6f756e636560008201527f20726f6c657320666f722073656c660000000000000000000000000000000000602082015250565b6000611043602f83610fd6565b915061104e82610fe7565b604082019050919050565b6000602082019050818103600083015261107281611036565b9050919050565b7f546869732072657175657374206973206e6f7420696e206d792070656e64696e60008201527f67206c6973742e00000000000000000000000000000000000000000000000000602082015250565b60006110d5602783610fd6565b91506110e082611079565b604082019050919050565b60006020820190508181036000830152611104816110c8565b9050919050565b60006040820190506111206000830185610d78565b61112d6020830184610d78565b9392505050565b60006040820190506111496000830185610d78565b6111566020830184610f9e565b9392505050565b600061116882610d6e565b915061117383610d6e565b9250817fffffffffffffffffffffffffffffffffffffffffffffffffffffffffffffffff04831182151516156111ac576111ab610e21565b5b828202905092915050565b60006111c282610d6e565b91506111cd83610d6e565b9250827fffffffffffffffffffffffffffffffffffffffffffffffffffffffffffffffff0382111561120257611201610e21565b5b828201905092915050565b7f4e487b7100000000000000000000000000000000000000000000000000000000600052604160045260246000fd5b7f4e487b7100000000000000000000000000000000000000000000000000000000600052603260045260246000fd5b600061127682610d6e565b91506000820361128957611288610e21565b5b600182039050919050565b7f537472696e67733a20686578206c656e67746820696e73756666696369656e74600082015250565b60006112ca602083610fd6565b91506112d582611294565b602082019050919050565b600060208201905081810360008301526112f9816112bd565b9050919050565b600081905092915050565b7f416363657373436f6e74726f6c3a206163636f756e7420000000000000000000600082015250565b6000611341601783611300565b915061134c8261130b565b601782019050919050565b600081519050919050565b60005b83811015611380578082015181840152602081019050611365565b8381111561138f576000848401525b50505050565b60006113a082611357565b6113aa8185611300565b93506113ba818560208601611362565b80840191505092915050565b7f206973206d697373696e6720726f6c6520000000000000000000000000000000600082015250565b60006113fc601183611300565b9150611407826113c6565b601182019050919050565b600061141d82611334565b91506114298285611395565b9150611434826113ef565b91506114408284611395565b91508190509392505050565b6000601f19601f8301169050919050565b600061146882611357565b6114728185610fd6565b9350611482818560208601611362565b61148b8161144c565b840191505092915050565b600060208201905081810360008301526114b0818461145d565b90509291505056fea26469706673582212208903e4e0e2b171fb353147c209ebf45d710d7222000666fa4b3464ec37b2742764736f6c634300080d0033",
  "immutableReferences": {},
  "source": "//SPDX-License-Identifier: UNLICENSED\npragma solidity >=0.8.0;\n\nimport \"./ICallerContract.sol\";\nimport \"@openzeppelin/contracts/access/AccessControl.sol\";\n//import \"@openzeppelin/contracts/access/Ownable.sol\";\n\n/// @title Contract that interact w/ Node server\n/// @author Yuseok Michael Won\ncontract EthPriceOracle is AccessControl {\n  bytes32 public constant owner = keccak256(\"owner\");\n  bytes32 public constant oracles = keccak256(\"oracles\");\n\n  uint private randNonce = 0;\n  uint private modulus = 1000;\n  mapping(uint256=>bool) pendingRequests;\n\n  event GetLatestEthPriceEvent(address callerAddress, uint id);\n  event SetLatestEthPriceEvent(uint256 ethPrice, address callerAddress);\n  \n  constructor(address _owner) {\n    grantRole(owner, _owner);\n  }\n\n  /// @notice add randomly generated request id to pending list & return the id\n  function getLatestEthPrice() public returns (uint256) {\n      randNonce++;\n      uint id = uint(keccak256(abi.encodePacked(block.timestamp, msg.sender, randNonce))) % modulus;\n      pendingRequests[id] = true;\n      emit GetLatestEthPriceEvent(msg.sender, id);\n      return id;\n  }\n\n  /// @notice if request is valid, remove request from pendding list & callback the _ethPrice to caller contract\n  function setLatestEthPrice(uint256 _ethPrice, address _callerAddress, uint256 _id) public onlyRole(owner) {\n      require(pendingRequests[_id], \"This request is not in my pending list.\");\n      delete pendingRequests[_id];\n      ICallerContract callerContractInstance;\n      callerContractInstance = ICallerContract(_callerAddress);\n      callerContractInstance.callback(_ethPrice, _id);\n      emit SetLatestEthPriceEvent(_ethPrice, _callerAddress);\n  }\n}",
  "sourcePath": "/Users/michaelwon/Documents/Side-Project/EthPriceOracle/oracle/contracts/EthPriceOracle.sol",
  "compiler": {
    "name": "solc",
    "version": "0.8.13+commit.abaa5c0e.Emscripten.clang"
  },
  "schemaVersion": "3.4.6",
  "updatedAt": "2022-05-04T08:42:14.007Z",
  "devdoc": {
    "author": "Yuseok Michael Won",
    "kind": "dev",
    "methods": {
      "getRoleAdmin(bytes32)": {
        "details": "Returns the admin role that controls `role`. See {grantRole} and {revokeRole}. To change a role's admin, use {_setRoleAdmin}."
      },
      "grantRole(bytes32,address)": {
        "details": "Grants `role` to `account`. If `account` had not been already granted `role`, emits a {RoleGranted} event. Requirements: - the caller must have ``role``'s admin role."
      },
      "hasRole(bytes32,address)": {
        "details": "Returns `true` if `account` has been granted `role`."
      },
      "renounceRole(bytes32,address)": {
        "details": "Revokes `role` from the calling account. Roles are often managed via {grantRole} and {revokeRole}: this function's purpose is to provide a mechanism for accounts to lose their privileges if they are compromised (such as when a trusted device is misplaced). If the calling account had been revoked `role`, emits a {RoleRevoked} event. Requirements: - the caller must be `account`."
      },
      "revokeRole(bytes32,address)": {
        "details": "Revokes `role` from `account`. If `account` had been granted `role`, emits a {RoleRevoked} event. Requirements: - the caller must have ``role``'s admin role."
      },
      "supportsInterface(bytes4)": {
        "details": "See {IERC165-supportsInterface}."
      }
    },
    "title": "Contract that interact w/ Node server",
    "version": 1
  },
  "userdoc": {
    "kind": "user",
    "methods": {
      "getLatestEthPrice()": {
        "notice": "add randomly generated request id to pending list & return the id"
      },
      "setLatestEthPrice(uint256,address,uint256)": {
        "notice": "if request is valid, remove request from pendding list & callback the _ethPrice to caller contract"
      }
    },
    "version": 1
  }
}