{
  "contractName": "EthPriceOracle",
  "abi": [
    {
      "inputs": [
        {
          "internalType": "address",
          "name": "_owner",
          "type": "address"
        }
      ],
      "stateMutability": "nonpayable",
      "type": "constructor"
    },
    {
      "anonymous": false,
      "inputs": [
        {
          "indexed": false,
          "internalType": "address",
          "name": "callerAddress",
          "type": "address"
        },
        {
          "indexed": false,
          "internalType": "uint256",
          "name": "id",
          "type": "uint256"
        }
      ],
      "name": "GetLatestEthPriceEvent",
      "type": "event"
    },
    {
      "anonymous": false,
      "inputs": [
        {
          "indexed": true,
          "internalType": "bytes32",
          "name": "role",
          "type": "bytes32"
        },
        {
          "indexed": true,
          "internalType": "bytes32",
          "name": "previousAdminRole",
          "type": "bytes32"
        },
        {
          "indexed": true,
          "internalType": "bytes32",
          "name": "newAdminRole",
          "type": "bytes32"
        }
      ],
      "name": "RoleAdminChanged",
      "type": "event"
    },
    {
      "anonymous": false,
      "inputs": [
        {
          "indexed": true,
          "internalType": "bytes32",
          "name": "role",
          "type": "bytes32"
        },
        {
          "indexed": true,
          "internalType": "address",
          "name": "account",
          "type": "address"
        },
        {
          "indexed": true,
          "internalType": "address",
          "name": "sender",
          "type": "address"
        }
      ],
      "name": "RoleGranted",
      "type": "event"
    },
    {
      "anonymous": false,
      "inputs": [
        {
          "indexed": true,
          "internalType": "bytes32",
          "name": "role",
          "type": "bytes32"
        },
        {
          "indexed": true,
          "internalType": "address",
          "name": "account",
          "type": "address"
        },
        {
          "indexed": true,
          "internalType": "address",
          "name": "sender",
          "type": "address"
        }
      ],
      "name": "RoleRevoked",
      "type": "event"
    },
    {
      "anonymous": false,
      "inputs": [
        {
          "indexed": false,
          "internalType": "uint256",
          "name": "ethPrice",
          "type": "uint256"
        },
        {
          "indexed": false,
          "internalType": "address",
          "name": "callerAddress",
          "type": "address"
        }
      ],
      "name": "SetLatestEthPriceEvent",
      "type": "event"
    },
    {
      "anonymous": false,
      "inputs": [
        {
          "indexed": false,
          "internalType": "uint256",
          "name": "THRESHOLD",
          "type": "uint256"
        }
      ],
      "name": "SetThresholdEvent",
      "type": "event"
    },
    {
      "inputs": [],
      "name": "DEFAULT_ADMIN_ROLE",
      "outputs": [
        {
          "internalType": "bytes32",
          "name": "",
          "type": "bytes32"
        }
      ],
      "stateMutability": "view",
      "type": "function"
    },
    {
      "inputs": [],
      "name": "ORACLE_ROLE",
      "outputs": [
        {
          "internalType": "bytes32",
          "name": "",
          "type": "bytes32"
        }
      ],
      "stateMutability": "view",
      "type": "function"
    },
    {
      "inputs": [],
      "name": "OWNER_ROLE",
      "outputs": [
        {
          "internalType": "bytes32",
          "name": "",
          "type": "bytes32"
        }
      ],
      "stateMutability": "view",
      "type": "function"
    },
    {
      "inputs": [
        {
          "internalType": "bytes32",
          "name": "role",
          "type": "bytes32"
        }
      ],
      "name": "getRoleAdmin",
      "outputs": [
        {
          "internalType": "bytes32",
          "name": "",
          "type": "bytes32"
        }
      ],
      "stateMutability": "view",
      "type": "function"
    },
    {
      "inputs": [
        {
          "internalType": "bytes32",
          "name": "role",
          "type": "bytes32"
        },
        {
          "internalType": "address",
          "name": "account",
          "type": "address"
        }
      ],
      "name": "grantRole",
      "outputs": [],
      "stateMutability": "nonpayable",
      "type": "function"
    },
    {
      "inputs": [
        {
          "internalType": "bytes32",
          "name": "role",
          "type": "bytes32"
        },
        {
          "internalType": "address",
          "name": "account",
          "type": "address"
        }
      ],
      "name": "hasRole",
      "outputs": [
        {
          "internalType": "bool",
          "name": "",
          "type": "bool"
        }
      ],
      "stateMutability": "view",
      "type": "function"
    },
    {
      "inputs": [
        {
          "internalType": "bytes32",
          "name": "role",
          "type": "bytes32"
        },
        {
          "internalType": "address",
          "name": "account",
          "type": "address"
        }
      ],
      "name": "renounceRole",
      "outputs": [],
      "stateMutability": "nonpayable",
      "type": "function"
    },
    {
      "inputs": [
        {
          "internalType": "uint256",
          "name": "",
          "type": "uint256"
        },
        {
          "internalType": "uint256",
          "name": "",
          "type": "uint256"
        }
      ],
      "name": "requestIdToResponse",
      "outputs": [
        {
          "internalType": "address",
          "name": "oracleAddress",
          "type": "address"
        },
        {
          "internalType": "address",
          "name": "callerAddress",
          "type": "address"
        },
        {
          "internalType": "uint256",
          "name": "ethPrice",
          "type": "uint256"
        }
      ],
      "stateMutability": "view",
      "type": "function"
    },
    {
      "inputs": [
        {
          "internalType": "bytes32",
          "name": "role",
          "type": "bytes32"
        },
        {
          "internalType": "address",
          "name": "account",
          "type": "address"
        }
      ],
      "name": "revokeRole",
      "outputs": [],
      "stateMutability": "nonpayable",
      "type": "function"
    },
    {
      "inputs": [
        {
          "internalType": "bytes4",
          "name": "interfaceId",
          "type": "bytes4"
        }
      ],
      "name": "supportsInterface",
      "outputs": [
        {
          "internalType": "bool",
          "name": "",
          "type": "bool"
        }
      ],
      "stateMutability": "view",
      "type": "function"
    },
    {
      "inputs": [
        {
          "internalType": "address",
          "name": "_oracle",
          "type": "address"
        }
      ],
      "name": "addOracle",
      "outputs": [],
      "stateMutability": "nonpayable",
      "type": "function"
    },
    {
      "inputs": [
        {
          "internalType": "address",
          "name": "_oracle",
          "type": "address"
        }
      ],
      "name": "removeOralce",
      "outputs": [],
      "stateMutability": "nonpayable",
      "type": "function"
    },
    {
      "inputs": [
        {
          "internalType": "uint256",
          "name": "_threshold",
          "type": "uint256"
        }
      ],
      "name": "setThreshold",
      "outputs": [],
      "stateMutability": "nonpayable",
      "type": "function"
    },
    {
      "inputs": [],
      "name": "getLatestEthPrice",
      "outputs": [
        {
          "internalType": "uint256",
          "name": "",
          "type": "uint256"
        }
      ],
      "stateMutability": "nonpayable",
      "type": "function"
    },
    {
      "inputs": [
        {
          "internalType": "uint256",
          "name": "_ethPrice",
          "type": "uint256"
        },
        {
          "internalType": "address",
          "name": "_callerAddress",
          "type": "address"
        },
        {
          "internalType": "uint256",
          "name": "_id",
          "type": "uint256"
        }
      ],
      "name": "setLatestEthPrice",
      "outputs": [],
      "stateMutability": "nonpayable",
      "type": "function"
    }
  ],
  "bytecode": "0x608060405260006001556103e8600255600060035560006004553480156200002657600080fd5b506040516200219a3803806200219a83398181016040528101906200004c919062000334565b620000616000801b82620000cf60201b60201c565b620000967fb9cba22b2cafd524314ce673fe23829450404e65620365072db7e950762157aa6000801b620000e560201b60201c565b620000c87fb9cba22b2cafd524314ce673fe23829450404e65620365072db7e950762157aa82620000cf60201b60201c565b5062000366565b620000e182826200014860201b60201c565b5050565b6000620000f8836200023960201b60201c565b905081600080858152602001908152602001600020600101819055508181847fbd79b86ffe0ab8e8776151514217cd7cacd52c909f66475c3af44e129f0b00ff60405160405180910390a4505050565b6200015a82826200025860201b60201c565b6200023557600160008084815260200190815260200160002060000160008373ffffffffffffffffffffffffffffffffffffffff1673ffffffffffffffffffffffffffffffffffffffff16815260200190815260200160002060006101000a81548160ff021916908315150217905550620001da620002c260201b60201c565b73ffffffffffffffffffffffffffffffffffffffff168173ffffffffffffffffffffffffffffffffffffffff16837f2f8788117e7eff1d82e926ec794901d17c78024a50270940304540a733656f0d60405160405180910390a45b5050565b6000806000838152602001908152602001600020600101549050919050565b600080600084815260200190815260200160002060000160008373ffffffffffffffffffffffffffffffffffffffff1673ffffffffffffffffffffffffffffffffffffffff16815260200190815260200160002060009054906101000a900460ff16905092915050565b600033905090565b600080fd5b600073ffffffffffffffffffffffffffffffffffffffff82169050919050565b6000620002fc82620002cf565b9050919050565b6200030e81620002ef565b81146200031a57600080fd5b50565b6000815190506200032e8162000303565b92915050565b6000602082840312156200034d576200034c620002ca565b5b60006200035d848285016200031d565b91505092915050565b611e2480620003766000396000f3fe608060405234801561001057600080fd5b50600436106100f55760003560e01c80638bbc085a11610097578063cf642f1f11610066578063cf642f1f14610286578063d547741f146102a2578063df5dd1a5146102be578063e58378bb146102da576100f5565b80638bbc085a146101ea57806391d148541461021c578063960bfe041461024c578063a217fddf14610268576100f5565b8063248a9ca3116100d3578063248a9ca3146101645780632f2ff15d1461019457806330c0b9ec146101b057806336568abe146101ce576100f5565b806301ffc9a7146100fa57806307e2cea51461012a5780631a2c926f14610148575b600080fd5b610114600480360381019061010f9190611295565b6102f8565b60405161012191906112dd565b60405180910390f35b610132610372565b60405161013f9190611311565b60405180910390f35b610162600480360381019061015d919061138a565b610396565b005b61017e600480360381019061017991906113e3565b61056d565b60405161018b9190611311565b60405180910390f35b6101ae60048036038101906101a99190611410565b61058c565b005b6101b86105ad565b6040516101c59190611469565b60405180910390f35b6101e860048036038101906101e39190611410565b610674565b005b61020460048036038101906101ff91906114b0565b6106f7565b604051610213939291906114ff565b60405180910390f35b61023660048036038101906102319190611410565b61077e565b60405161024391906112dd565b60405180910390f35b61026660048036038101906102619190611536565b6107e8565b005b610270610856565b60405161027d9190611311565b60405180910390f35b6102a0600480360381019061029b9190611563565b61085d565b005b6102bc60048036038101906102b79190611410565b610b0b565b005b6102d860048036038101906102d3919061138a565b610b2c565b005b6102e2610ca7565b6040516102ef9190611311565b60405180910390f35b60007f7965db0b000000000000000000000000000000000000000000000000000000007bffffffffffffffffffffffffffffffffffffffffffffffffffffffff1916827bffffffffffffffffffffffffffffffffffffffffffffffffffffffff1916148061036b575061036a82610ccb565b5b9050919050565b7fb7a48206cd37ed309fdcdf62fe4b65d6871298645d5e41942f0cd89c08a65cbf81565b6103c07fb9cba22b2cafd524314ce673fe23829450404e65620365072db7e950762157aa3361077e565b6103ff576040517f08c379a00000000000000000000000000000000000000000000000000000000081526004016103f690611613565b60405180910390fd5b6104297fb7a48206cd37ed309fdcdf62fe4b65d6871298645d5e41942f0cd89c08a65cbf8261077e565b610468576040517f08c379a000000000000000000000000000000000000000000000000000000000815260040161045f9061167f565b60405180910390fd5b6001600354116104ad576040517f08c379a00000000000000000000000000000000000000000000000000000000081526004016104a4906116eb565b60405180910390fd5b6104d77fb7a48206cd37ed309fdcdf62fe4b65d6871298645d5e41942f0cd89c08a65cbf82610d35565b600360008154809291906104ea9061173a565b91905055503373ffffffffffffffffffffffffffffffffffffffff168173ffffffffffffffffffffffffffffffffffffffff167fb7a48206cd37ed309fdcdf62fe4b65d6871298645d5e41942f0cd89c08a65cbf7ff6391f5c32d9c69d2a47ea670b442974b53935d1edc7fd64eb21e047a839171b60405160405180910390a450565b6000806000838152602001908152602001600020600101549050919050565b6105958261056d565b61059e81610e16565b6105a88383610e2a565b505050565b6000600160008154809291906105c290611763565b9190505550600060025442336001546040516020016105e393929190611814565b6040516020818303038152906040528051906020012060001c6106069190611880565b905060016005600083815260200190815260200160002060006101000a81548160ff0219169083151502179055507f3d50a0c24e97813f35595d2f1f37dbf421d5e97f37abd4e222853e9b9c82c8d533826040516106659291906118b1565b60405180910390a18091505090565b61067c610f0a565b73ffffffffffffffffffffffffffffffffffffffff168173ffffffffffffffffffffffffffffffffffffffff16146106e9576040517f08c379a00000000000000000000000000000000000000000000000000000000081526004016106e09061194c565b60405180910390fd5b6106f38282610d35565b5050565b6006602052816000526040600020818154811061071357600080fd5b9060005260206000209060030201600091509150508060000160009054906101000a900473ffffffffffffffffffffffffffffffffffffffff16908060010160009054906101000a900473ffffffffffffffffffffffffffffffffffffffff16908060020154905083565b600080600084815260200190815260200160002060000160008373ffffffffffffffffffffffffffffffffffffffff1673ffffffffffffffffffffffffffffffffffffffff16815260200190815260200160002060009054906101000a900460ff16905092915050565b7fb7a48206cd37ed309fdcdf62fe4b65d6871298645d5e41942f0cd89c08a65cbf61081281610e16565b816004819055507f0f4f9dbb729778e455b47da600927c51653092f52835705824cd1db65a29ed0d60045460405161084a9190611469565b60405180910390a15050565b6000801b81565b7fb7a48206cd37ed309fdcdf62fe4b65d6871298645d5e41942f0cd89c08a65cbf61088781610e16565b6005600083815260200190815260200160002060009054906101000a900460ff166108e7576040517f08c379a00000000000000000000000000000000000000000000000000000000081526004016108de906119de565b60405180910390fd5b6108ef6111eb565b60405180606001604052803373ffffffffffffffffffffffffffffffffffffffff1681526020018573ffffffffffffffffffffffffffffffffffffffff1681526020018681525090506006600084815260200190815260200160002081908060018154018082558091505060019003906000526020600020906003020160009091909190915060008201518160000160006101000a81548173ffffffffffffffffffffffffffffffffffffffff021916908373ffffffffffffffffffffffffffffffffffffffff16021790555060208201518160010160006101000a81548173ffffffffffffffffffffffffffffffffffffffff021916908373ffffffffffffffffffffffffffffffffffffffff1602179055506040820151816002015550506000600660008581526020019081526020016000208054905090506004548110610b03576005600085815260200190815260200160002060006101000a81549060ff021916905560008590508073ffffffffffffffffffffffffffffffffffffffff1663b5d73ba488876040518363ffffffff1660e01b8152600401610a969291906119fe565b600060405180830381600087803b158015610ab057600080fd5b505af1158015610ac4573d6000803e3d6000fd5b505050507f91b860381268a473101de3379abbb70abf7ea6c9d1735cf58b9816479ff3b7278787604051610af9929190611a27565b60405180910390a1505b505050505050565b610b148261056d565b610b1d81610e16565b610b278383610d35565b505050565b610b567fb9cba22b2cafd524314ce673fe23829450404e65620365072db7e950762157aa3361077e565b610b95576040517f08c379a0000000000000000000000000000000000000000000000000000000008152600401610b8c90611613565b60405180910390fd5b610bbf7fb7a48206cd37ed309fdcdf62fe4b65d6871298645d5e41942f0cd89c08a65cbf8261077e565b15610bff576040517f08c379a0000000000000000000000000000000000000000000000000000000008152600401610bf690611a9c565b60405180910390fd5b610c297fb7a48206cd37ed309fdcdf62fe4b65d6871298645d5e41942f0cd89c08a65cbf82610e2a565b3373ffffffffffffffffffffffffffffffffffffffff168173ffffffffffffffffffffffffffffffffffffffff167fb7a48206cd37ed309fdcdf62fe4b65d6871298645d5e41942f0cd89c08a65cbf7f2f8788117e7eff1d82e926ec794901d17c78024a50270940304540a733656f0d60405160405180910390a450565b7fb9cba22b2cafd524314ce673fe23829450404e65620365072db7e950762157aa81565b60007f01ffc9a7000000000000000000000000000000000000000000000000000000007bffffffffffffffffffffffffffffffffffffffffffffffffffffffff1916827bffffffffffffffffffffffffffffffffffffffffffffffffffffffff1916149050919050565b610d3f828261077e565b15610e1257600080600084815260200190815260200160002060000160008373ffffffffffffffffffffffffffffffffffffffff1673ffffffffffffffffffffffffffffffffffffffff16815260200190815260200160002060006101000a81548160ff021916908315150217905550610db7610f0a565b73ffffffffffffffffffffffffffffffffffffffff168173ffffffffffffffffffffffffffffffffffffffff16837ff6391f5c32d9c69d2a47ea670b442974b53935d1edc7fd64eb21e047a839171b60405160405180910390a45b5050565b610e2781610e22610f0a565b610f12565b50565b610e34828261077e565b610f0657600160008084815260200190815260200160002060000160008373ffffffffffffffffffffffffffffffffffffffff1673ffffffffffffffffffffffffffffffffffffffff16815260200190815260200160002060006101000a81548160ff021916908315150217905550610eab610f0a565b73ffffffffffffffffffffffffffffffffffffffff168173ffffffffffffffffffffffffffffffffffffffff16837f2f8788117e7eff1d82e926ec794901d17c78024a50270940304540a733656f0d60405160405180910390a45b5050565b600033905090565b610f1c828261077e565b610fab57610f418173ffffffffffffffffffffffffffffffffffffffff166014610faf565b610f4f8360001c6020610faf565b604051602001610f60929190611bce565b6040516020818303038152906040526040517f08c379a0000000000000000000000000000000000000000000000000000000008152600401610fa29190611c52565b60405180910390fd5b5050565b606060006002836002610fc29190611c74565b610fcc9190611cce565b67ffffffffffffffff811115610fe557610fe4611d24565b5b6040519080825280601f01601f1916602001820160405280156110175781602001600182028036833780820191505090505b5090507f30000000000000000000000000000000000000000000000000000000000000008160008151811061104f5761104e611d53565b5b60200101907effffffffffffffffffffffffffffffffffffffffffffffffffffffffffffff1916908160001a9053507f7800000000000000000000000000000000000000000000000000000000000000816001815181106110b3576110b2611d53565b5b60200101907effffffffffffffffffffffffffffffffffffffffffffffffffffffffffffff1916908160001a905350600060018460026110f39190611c74565b6110fd9190611cce565b90505b600181111561119d577f3031323334353637383961626364656600000000000000000000000000000000600f86166010811061113f5761113e611d53565b5b1a60f81b82828151811061115657611155611d53565b5b60200101907effffffffffffffffffffffffffffffffffffffffffffffffffffffffffffff1916908160001a905350600485901c9450806111969061173a565b9050611100565b50600084146111e1576040517f08c379a00000000000000000000000000000000000000000000000000000000081526004016111d890611dce565b60405180910390fd5b8091505092915050565b6040518060600160405280600073ffffffffffffffffffffffffffffffffffffffff168152602001600073ffffffffffffffffffffffffffffffffffffffff168152602001600081525090565b600080fd5b60007fffffffff0000000000000000000000000000000000000000000000000000000082169050919050565b6112728161123d565b811461127d57600080fd5b50565b60008135905061128f81611269565b92915050565b6000602082840312156112ab576112aa611238565b5b60006112b984828501611280565b91505092915050565b60008115159050919050565b6112d7816112c2565b82525050565b60006020820190506112f260008301846112ce565b92915050565b6000819050919050565b61130b816112f8565b82525050565b60006020820190506113266000830184611302565b92915050565b600073ffffffffffffffffffffffffffffffffffffffff82169050919050565b60006113578261132c565b9050919050565b6113678161134c565b811461137257600080fd5b50565b6000813590506113848161135e565b92915050565b6000602082840312156113a05761139f611238565b5b60006113ae84828501611375565b91505092915050565b6113c0816112f8565b81146113cb57600080fd5b50565b6000813590506113dd816113b7565b92915050565b6000602082840312156113f9576113f8611238565b5b6000611407848285016113ce565b91505092915050565b6000806040838503121561142757611426611238565b5b6000611435858286016113ce565b925050602061144685828601611375565b9150509250929050565b6000819050919050565b61146381611450565b82525050565b600060208201905061147e600083018461145a565b92915050565b61148d81611450565b811461149857600080fd5b50565b6000813590506114aa81611484565b92915050565b600080604083850312156114c7576114c6611238565b5b60006114d58582860161149b565b92505060206114e68582860161149b565b9150509250929050565b6114f98161134c565b82525050565b600060608201905061151460008301866114f0565b61152160208301856114f0565b61152e604083018461145a565b949350505050565b60006020828403121561154c5761154b611238565b5b600061155a8482850161149b565b91505092915050565b60008060006060848603121561157c5761157b611238565b5b600061158a8682870161149b565b935050602061159b86828701611375565b92505060406115ac8682870161149b565b9150509250925092565b600082825260208201905092915050565b7f4e6f7420616e204f574e45522100000000000000000000000000000000000000600082015250565b60006115fd600d836115b6565b9150611608826115c7565b602082019050919050565b6000602082019050818103600083015261162c816115f0565b9050919050565b7f4e6f7420616e204f5241434c4521000000000000000000000000000000000000600082015250565b6000611669600e836115b6565b915061167482611633565b602082019050919050565b600060208201905081810360008301526116988161165c565b9050919050565b7f446f206e6f742072656d6f7665206c617374206f7261636c6521000000000000600082015250565b60006116d5601a836115b6565b91506116e08261169f565b602082019050919050565b60006020820190508181036000830152611704816116c8565b9050919050565b7f4e487b7100000000000000000000000000000000000000000000000000000000600052601160045260246000fd5b600061174582611450565b9150600082036117585761175761170b565b5b600182039050919050565b600061176e82611450565b91507fffffffffffffffffffffffffffffffffffffffffffffffffffffffffffffffff82036117a05761179f61170b565b5b600182019050919050565b6000819050919050565b6117c66117c182611450565b6117ab565b82525050565b60008160601b9050919050565b60006117e4826117cc565b9050919050565b60006117f6826117d9565b9050919050565b61180e6118098261134c565b6117eb565b82525050565b600061182082866117b5565b60208201915061183082856117fd565b60148201915061184082846117b5565b602082019150819050949350505050565b7f4e487b7100000000000000000000000000000000000000000000000000000000600052601260045260246000fd5b600061188b82611450565b915061189683611450565b9250826118a6576118a5611851565b5b828206905092915050565b60006040820190506118c660008301856114f0565b6118d3602083018461145a565b9392505050565b7f416363657373436f6e74726f6c3a2063616e206f6e6c792072656e6f756e636560008201527f20726f6c657320666f722073656c660000000000000000000000000000000000602082015250565b6000611936602f836115b6565b9150611941826118da565b604082019050919050565b6000602082019050818103600083015261196581611929565b9050919050565b7f546869732072657175657374206973206e6f7420696e206d792070656e64696e60008201527f67206c6973742e00000000000000000000000000000000000000000000000000602082015250565b60006119c86027836115b6565b91506119d38261196c565b604082019050919050565b600060208201905081810360008301526119f7816119bb565b9050919050565b6000604082019050611a13600083018561145a565b611a20602083018461145a565b9392505050565b6000604082019050611a3c600083018561145a565b611a4960208301846114f0565b9392505050565b7f416c7265616479204f5241434c45210000000000000000000000000000000000600082015250565b6000611a86600f836115b6565b9150611a9182611a50565b602082019050919050565b60006020820190508181036000830152611ab581611a79565b9050919050565b600081905092915050565b7f416363657373436f6e74726f6c3a206163636f756e7420000000000000000000600082015250565b6000611afd601783611abc565b9150611b0882611ac7565b601782019050919050565b600081519050919050565b60005b83811015611b3c578082015181840152602081019050611b21565b83811115611b4b576000848401525b50505050565b6000611b5c82611b13565b611b668185611abc565b9350611b76818560208601611b1e565b80840191505092915050565b7f206973206d697373696e6720726f6c6520000000000000000000000000000000600082015250565b6000611bb8601183611abc565b9150611bc382611b82565b601182019050919050565b6000611bd982611af0565b9150611be58285611b51565b9150611bf082611bab565b9150611bfc8284611b51565b91508190509392505050565b6000601f19601f8301169050919050565b6000611c2482611b13565b611c2e81856115b6565b9350611c3e818560208601611b1e565b611c4781611c08565b840191505092915050565b60006020820190508181036000830152611c6c8184611c19565b905092915050565b6000611c7f82611450565b9150611c8a83611450565b9250817fffffffffffffffffffffffffffffffffffffffffffffffffffffffffffffffff0483118215151615611cc357611cc261170b565b5b828202905092915050565b6000611cd982611450565b9150611ce483611450565b9250827fffffffffffffffffffffffffffffffffffffffffffffffffffffffffffffffff03821115611d1957611d1861170b565b5b828201905092915050565b7f4e487b7100000000000000000000000000000000000000000000000000000000600052604160045260246000fd5b7f4e487b7100000000000000000000000000000000000000000000000000000000600052603260045260246000fd5b7f537472696e67733a20686578206c656e67746820696e73756666696369656e74600082015250565b6000611db86020836115b6565b9150611dc382611d82565b602082019050919050565b60006020820190508181036000830152611de781611dab565b905091905056fea2646970667358221220665ad65c48421b47606e54da89f1a5cb7caa254cc45dec682c9fda3d4f84a5ef64736f6c634300080d0033",
  "immutableReferences": {},
  "source": "//SPDX-License-Identifier: UNLICENSED\npragma solidity >=0.8.0;\n\nimport \"./ICallerContract.sol\";\nimport \"@openzeppelin/contracts/access/AccessControl.sol\";\n//import \"@openzeppelin/contracts/access/Ownable.sol\";\n\n/// @title Contract that interact w/ Node server\n/// @author Yuseok Michael Won\ncontract EthPriceOracle is AccessControl {\n  bytes32 public constant OWNER_ROLE = keccak256(\"owners\");\n  bytes32 public constant ORACLE_ROLE = keccak256(\"oracles\");\n\n  uint private randNonce = 0;\n  uint private modulus = 1000;\n  uint private numOracles = 0;\n  uint private THRESHOLD = 0;\n  struct Response {\n    address oracleAddress;\n    address callerAddress;\n    uint256 ethPrice;\n  }\n\n  mapping(uint256=>bool) pendingRequests;\n  mapping (uint256=>Response[]) public requestIdToResponse;\n\n  event GetLatestEthPriceEvent(address callerAddress, uint id);\n  event SetLatestEthPriceEvent(uint256 ethPrice, address callerAddress);\n  event SetThresholdEvent(uint THRESHOLD);\n  //event AddOracleEvent(address oralceAddress);\n\n  /// @dev setting up Contract Owner a Default Admin & setting up other Roles\n  constructor(address _owner) {\n    _setupRole(DEFAULT_ADMIN_ROLE, _owner);\n    _setRoleAdmin(OWNER_ROLE, DEFAULT_ADMIN_ROLE);\n    _setupRole(OWNER_ROLE, _owner);\n    //grantRole(owners, _owner);\n  }\n\n  /// @dev caller need OWNER role & _oracle should not already be an Oracle\n  function addOracle(address _oracle) public {\n    require(hasRole(OWNER_ROLE, msg.sender), \"Not an OWNER!\");\n    require(!hasRole(ORACLE_ROLE, _oracle), \"Already ORACLE!\");\n    _grantRole(ORACLE_ROLE, _oracle);\n    emit RoleGranted(ORACLE_ROLE, _oracle, msg.sender);\n    //emit AddOracleEvent(_oracle);\n    //grantRole(OWNER_ROLE, _oracle);\n  }\n\n  /// @dev at least one oracle should remain, \n  function removeOralce(address _oracle) public {\n    require(hasRole(OWNER_ROLE, msg.sender), \"Not an OWNER!\");\n    require(hasRole(ORACLE_ROLE, _oracle), \"Not an ORACLE!\");\n    require(numOracles > 1, \"Do not remove last oracle!\");\n    _revokeRole(ORACLE_ROLE, _oracle);\n    numOracles--;\n    emit RoleRevoked(ORACLE_ROLE, _oracle, msg.sender);\n  }\n\n  function setThreshold(uint _threshold) public onlyRole(ORACLE_ROLE) {\n    THRESHOLD = _threshold;\n    emit SetThresholdEvent(THRESHOLD);\n  }\n\n  /// @dev add randomly generated request id to pending list & return the id\n  function getLatestEthPrice() public returns (uint256) {\n      randNonce++;\n      uint id = uint(keccak256(abi.encodePacked(block.timestamp, msg.sender, randNonce))) % modulus;\n      pendingRequests[id] = true;\n      emit GetLatestEthPriceEvent(msg.sender, id);\n      return id;\n  }\n\n  /// @dev if request is valid, remove request from pendding list & callback the _ethPrice to caller contract\n  function setLatestEthPrice(uint256 _ethPrice, address _callerAddress, uint256 _id) public onlyRole(ORACLE_ROLE) {\n      require(pendingRequests[_id], \"This request is not in my pending list.\");\n      Response memory resp;\n      resp = Response(msg.sender, _callerAddress, _ethPrice);\n      requestIdToResponse[_id].push(resp);\n      uint numResponses = requestIdToResponse[_id].length;\n      if (numResponses >= THRESHOLD){\n        delete pendingRequests[_id];\n        ICallerContract callerContractInstance;\n        callerContractInstance = ICallerContract(_callerAddress);\n        callerContractInstance.callback(_ethPrice, _id);\n        emit SetLatestEthPriceEvent(_ethPrice, _callerAddress);\n      }\n  }\n}",
  "sourcePath": "/Users/michaelwon/Documents/Side-Project/EthPriceOracle/oracle/contracts/EthPriceOracle.sol",
  "compiler": {
    "name": "solc",
    "version": "0.8.13+commit.abaa5c0e.Emscripten.clang"
  },
  "schemaVersion": "3.4.6",
  "updatedAt": "2022-05-11T11:40:20.454Z",
  "devdoc": {
    "author": "Yuseok Michael Won",
    "kind": "dev",
    "methods": {
      "addOracle(address)": {
        "details": "caller need OWNER role & _oracle should not already be an Oracle"
      },
      "constructor": {
        "details": "setting up Contract Owner a Default Admin & setting up other Roles"
      },
      "getLatestEthPrice()": {
        "details": "add randomly generated request id to pending list & return the id"
      },
      "getRoleAdmin(bytes32)": {
        "details": "Returns the admin role that controls `role`. See {grantRole} and {revokeRole}. To change a role's admin, use {_setRoleAdmin}."
      },
      "grantRole(bytes32,address)": {
        "details": "Grants `role` to `account`. If `account` had not been already granted `role`, emits a {RoleGranted} event. Requirements: - the caller must have ``role``'s admin role."
      },
      "hasRole(bytes32,address)": {
        "details": "Returns `true` if `account` has been granted `role`."
      },
      "removeOralce(address)": {
        "details": "at least one oracle should remain, "
      },
      "renounceRole(bytes32,address)": {
        "details": "Revokes `role` from the calling account. Roles are often managed via {grantRole} and {revokeRole}: this function's purpose is to provide a mechanism for accounts to lose their privileges if they are compromised (such as when a trusted device is misplaced). If the calling account had been revoked `role`, emits a {RoleRevoked} event. Requirements: - the caller must be `account`."
      },
      "revokeRole(bytes32,address)": {
        "details": "Revokes `role` from `account`. If `account` had been granted `role`, emits a {RoleRevoked} event. Requirements: - the caller must have ``role``'s admin role."
      },
      "setLatestEthPrice(uint256,address,uint256)": {
        "details": "if request is valid, remove request from pendding list & callback the _ethPrice to caller contract"
      },
      "supportsInterface(bytes4)": {
        "details": "See {IERC165-supportsInterface}."
      }
    },
    "title": "Contract that interact w/ Node server",
    "version": 1
  },
  "userdoc": {
    "kind": "user",
    "methods": {},
    "version": 1
  }
}